{
  "contractName": "Election",
  "abi": [
    {
      "inputs": [],
      "stateMutability": "nonpayable",
      "type": "constructor"
    },
    {
      "anonymous": false,
      "inputs": [
        {
          "indexed": true,
          "internalType": "uint256",
          "name": "_candidateId",
          "type": "uint256"
        }
      ],
      "name": "votedEvent",
      "type": "event"
    },
    {
      "inputs": [],
      "name": "candidateCount",
      "outputs": [
        {
          "internalType": "uint256",
          "name": "",
          "type": "uint256"
        }
      ],
      "stateMutability": "view",
      "type": "function",
      "constant": true
    },
    {
      "inputs": [
        {
          "internalType": "uint256",
          "name": "",
          "type": "uint256"
        }
      ],
      "name": "candidates",
      "outputs": [
        {
          "internalType": "string",
          "name": "name",
          "type": "string"
        },
        {
          "internalType": "uint256",
          "name": "id",
          "type": "uint256"
        },
        {
          "internalType": "uint256",
          "name": "voteCount",
          "type": "uint256"
        }
      ],
      "stateMutability": "view",
      "type": "function",
      "constant": true
    },
    {
      "inputs": [
        {
          "internalType": "address",
          "name": "",
          "type": "address"
        }
      ],
      "name": "voters",
      "outputs": [
        {
          "internalType": "bool",
          "name": "",
          "type": "bool"
        }
      ],
      "stateMutability": "view",
      "type": "function",
      "constant": true
    },
    {
      "inputs": [
        {
          "internalType": "uint256",
          "name": "_candidateId",
          "type": "uint256"
        }
      ],
      "name": "vote",
      "outputs": [],
      "stateMutability": "nonpayable",
      "type": "function"
    }
  ],
  "bytecode": "0x608060405234801561001057600080fd5b506100556040518060400160405280600581526020017f52616a617400000000000000000000000000000000000000000000000000000081525061012660201b60201c565b6100996040518060400160405280600581526020017f416368616c00000000000000000000000000000000000000000000000000000081525061012660201b60201c565b6100dd6040518060400160405280600581526020017f48616e736100000000000000000000000000000000000000000000000000000081525061012660201b60201c565b6101216040518060400160405280600581526020017f4268756d6900000000000000000000000000000000000000000000000000000081525061012660201b60201c565b61023f565b60026000815480929190600101919050555060405180606001604052808281526020016002548152602001600081525060016000600254815260200190815260200160002060008201518160000190805190602001906101879291906101a2565b50602082015181600101556040820151816002015590505050565b828054600181600116156101000203166002900490600052602060002090601f016020900481019282601f106101e357805160ff1916838001178555610211565b82800160010185558215610211579182015b828111156102105782518255916020019190600101906101f5565b5b50905061021e9190610222565b5090565b5b8082111561023b576000816000905550600101610223565b5090565b6103e88061024e6000396000f3fe608060405234801561001057600080fd5b506004361061004c5760003560e01c80630121b93f146100515780633477ee2e1461007f578063a3ec138d14610134578063a9a981a31461018e575b600080fd5b61007d6004803603602081101561006757600080fd5b81019080803590602001909291905050506101ac565b005b6100ab6004803603602081101561009557600080fd5b81019080803590602001909291905050506102ca565b6040518080602001848152602001838152602001828103825285818151815260200191508051906020019080838360005b838110156100f75780820151818401526020810190506100dc565b50505050905090810190601f1680156101245780820380516001836020036101000a031916815260200191505b5094505050505060405180910390f35b6101766004803603602081101561014a57600080fd5b81019080803573ffffffffffffffffffffffffffffffffffffffff16906020019092919050505061038c565b60405180821515815260200191505060405180910390f35b6101966103ac565b6040518082815260200191505060405180910390f35b6000803373ffffffffffffffffffffffffffffffffffffffff1673ffffffffffffffffffffffffffffffffffffffff16815260200190815260200160002060009054906101000a900460ff161561020257600080fd5b60008111801561021457506002548111155b61021d57600080fd5b60016000803373ffffffffffffffffffffffffffffffffffffffff1673ffffffffffffffffffffffffffffffffffffffff16815260200190815260200160002060006101000a81548160ff0219169083151502179055506001600082815260200190815260200160002060020160008154809291906001019190505550807ffff3c900d938d21d0990d786e819f29b8d05c1ef587b462b939609625b684b1660405160405180910390a250565b6001602052806000526040600020600091509050806000018054600181600116156101000203166002900480601f0160208091040260200160405190810160405280929190818152602001828054600181600116156101000203166002900480156103765780601f1061034b57610100808354040283529160200191610376565b820191906000526020600020905b81548152906001019060200180831161035957829003601f168201915b5050505050908060010154908060020154905083565b60006020528060005260406000206000915054906101000a900460ff1681565b6002548156fea26469706673582212209f2d62f09b6b17015874b12a8be55071ff7d1b2385627263c99be163c833c65864736f6c63430007000033",
  "immutableReferences": {},
  "source": "// // SPDX-License-Identifier: MIT\npragma solidity ^0.7.0;\n\ncontract Election {\n    // Model a Candidate\n    struct Candidate {\n        string name;\n        uint id;\n        uint voteCount;\n    }\n\n    event votedEvent(\n        uint indexed _candidateId\n    );\n\n    // stores the voter address to avoid mutiple votes\n    mapping(address => bool) public voters;\n\n    // Store Candidates\n    // Fetch Candidate\n    mapping(uint => Candidate) public candidates;\n\n    // Read Candidates Count\n    uint public candidateCount;\n\n    constructor() {\n        addCandidate(\"Rajat\");\n        addCandidate(\"Achal\");\n        addCandidate(\"Hansa\");\n        addCandidate(\"Bhumi\");\n    }\n\n    function addCandidate(string memory _name) private {\n        candidateCount++;\n        candidates[candidateCount] = Candidate(_name, candidateCount, 0);\n    }\n\n    function vote(uint _candidateId) public {\n        // verify the voters has not voted before\n        require(!voters[msg.sender]);\n\n        // candiadte Id should be valid\n\n        require(_candidateId > 0 && _candidateId <= candidateCount);\n\n        // Record that voter has voted\n        voters[msg.sender] = true;\n        // update candidate vote count\n        candidates[_candidateId].voteCount++;\n\n       emit votedEvent(_candidateId);\n    }\n}",
  "sourcePath": "/Users/rajatarora/Documents/Block Chain/Projects/election/contracts/Election.sol",
  "compiler": {
    "name": "solc",
    "version": "0.7.0+commit.9e61f92b.Emscripten.clang"
  },
  "schemaVersion": "3.3.3",
  "updatedAt": "2021-02-18T18:29:44.953Z",
  "networkType": "ethereum",
  "devdoc": {
    "kind": "dev",
    "methods": {},
    "version": 1
  },
  "userdoc": {
    "kind": "user",
    "methods": {},
    "version": 1
  }
}