{
  "contractName": "Election",
  "abi": [
    {
      "inputs": [],
      "stateMutability": "nonpayable",
      "type": "constructor"
    },
    {
      "inputs": [],
      "name": "candidateCount",
      "outputs": [
        {
          "internalType": "uint256",
          "name": "",
          "type": "uint256"
        }
      ],
      "stateMutability": "view",
      "type": "function",
      "constant": true
    },
    {
      "inputs": [
        {
          "internalType": "uint256",
          "name": "",
          "type": "uint256"
        }
      ],
      "name": "candidates",
      "outputs": [
        {
          "internalType": "string",
          "name": "name",
          "type": "string"
        },
        {
          "internalType": "uint256",
          "name": "id",
          "type": "uint256"
        },
        {
          "internalType": "uint256",
          "name": "voteCount",
          "type": "uint256"
        }
      ],
      "stateMutability": "view",
      "type": "function",
      "constant": true
    }
  ],
  "bytecode": "0x608060405234801561001057600080fd5b506100556040518060400160405280600581526020017f52616a617400000000000000000000000000000000000000000000000000000081525061012660201b60201c565b6100996040518060400160405280600581526020017f416368616c00000000000000000000000000000000000000000000000000000081525061012660201b60201c565b6100dd6040518060400160405280600581526020017f48616e736100000000000000000000000000000000000000000000000000000081525061012660201b60201c565b6101216040518060400160405280600581526020017f4268756d6900000000000000000000000000000000000000000000000000000081525061012660201b60201c565b61023e565b600160008154809291906001019190505550604051806060016040528082815260200160015481526020016000815250600080600154815260200190815260200160002060008201518160000190805190602001906101869291906101a1565b50602082015181600101556040820151816002015590505050565b828054600181600116156101000203166002900490600052602060002090601f016020900481019282601f106101e257805160ff1916838001178555610210565b82800160010185558215610210579182015b8281111561020f5782518255916020019190600101906101f4565b5b50905061021d9190610221565b5090565b5b8082111561023a576000816000905550600101610222565b5090565b61020c8061024d6000396000f3fe608060405234801561001057600080fd5b50600436106100365760003560e01c80633477ee2e1461003b578063a9a981a3146100f0575b600080fd5b6100676004803603602081101561005157600080fd5b810190808035906020019092919050505061010e565b6040518080602001848152602001838152602001828103825285818151815260200191508051906020019080838360005b838110156100b3578082015181840152602081019050610098565b50505050905090810190601f1680156100e05780820380516001836020036101000a031916815260200191505b5094505050505060405180910390f35b6100f86101d0565b6040518082815260200191505060405180910390f35b6000602052806000526040600020600091509050806000018054600181600116156101000203166002900480601f0160208091040260200160405190810160405280929190818152602001828054600181600116156101000203166002900480156101ba5780601f1061018f576101008083540402835291602001916101ba565b820191906000526020600020905b81548152906001019060200180831161019d57829003601f168201915b5050505050908060010154908060020154905083565b6001548156fea2646970667358221220adb064f19786e600f6e0a4c15e9dfed07b00d09a96dca112957f81ab78c2633364736f6c63430007000033",
  "immutableReferences": {},
  "source": "// // SPDX-License-Identifier: MIT\npragma solidity ^0.7.0;\n\ncontract Election {\n    // Model a Candidate\n    struct Candidate {\n        string name;\n        uint256 id;\n        uint256 voteCount;\n    }\n\n    // Store Candidates\n    // Fetch Candidate\n    mapping(uint256 => Candidate) public candidates;\n\n    // Read Candidates Count\n    uint256 public candidateCount;\n\n    constructor() {\n        addCandidate(\"Rajat\");\n        addCandidate(\"Achal\");\n        addCandidate(\"Hansa\");\n        addCandidate(\"Bhumi\");\n    }\n\n    function addCandidate(string memory _name) private {\n        candidateCount++;\n        candidates[candidateCount] = Candidate(_name, candidateCount, 0);\n    }\n}\n",
  "sourcePath": "/Users/rajatarora/Documents/Block Chain/Projects/election/contracts/Election.sol",
  "compiler": {
    "name": "solc",
    "version": "0.7.0+commit.9e61f92b.Emscripten.clang"
  },
  "schemaVersion": "3.3.3",
  "updatedAt": "2021-02-11T17:18:39.306Z",
  "networkType": "ethereum",
  "devdoc": {
    "kind": "dev",
    "methods": {},
    "version": 1
  },
  "userdoc": {
    "kind": "user",
    "methods": {},
    "version": 1
  }
}